{
  "contractName": "BitBets",
  "abi": [
    {
      "constant": true,
      "inputs": [
        {
          "name": "",
          "type": "uint256"
        },
        {
          "name": "",
          "type": "address"
        }
      ],
      "name": "userWithdrawn",
      "outputs": [
        {
          "name": "",
          "type": "bool"
        }
      ],
      "payable": false,
      "stateMutability": "view",
      "type": "function"
    },
    {
      "constant": true,
      "inputs": [
        {
          "name": "",
          "type": "uint256"
        }
      ],
      "name": "bets",
      "outputs": [
        {
          "name": "terms",
          "type": "string"
        },
        {
          "name": "amount",
          "type": "uint256"
        },
        {
          "name": "options",
          "type": "string"
        },
        {
          "name": "oracle",
          "type": "address"
        },
        {
          "name": "outcome",
          "type": "uint256"
        },
        {
          "name": "totalPool",
          "type": "uint256"
        },
        {
          "name": "paymentToken",
          "type": "address"
        }
      ],
      "payable": false,
      "stateMutability": "view",
      "type": "function"
    },
    {
      "constant": true,
      "inputs": [
        {
          "name": "",
          "type": "uint256"
        },
        {
          "name": "",
          "type": "address"
        }
      ],
      "name": "userBets",
      "outputs": [
        {
          "name": "",
          "type": "uint256"
        }
      ],
      "payable": false,
      "stateMutability": "view",
      "type": "function"
    },
    {
      "constant": true,
      "inputs": [
        {
          "name": "",
          "type": "uint256"
        },
        {
          "name": "",
          "type": "uint256"
        }
      ],
      "name": "choiceBets",
      "outputs": [
        {
          "name": "",
          "type": "uint256"
        }
      ],
      "payable": false,
      "stateMutability": "view",
      "type": "function"
    },
    {
      "constant": false,
      "inputs": [
        {
          "name": "terms",
          "type": "string"
        },
        {
          "name": "amount",
          "type": "uint256"
        },
        {
          "name": "options",
          "type": "string"
        },
        {
          "name": "paymentToken",
          "type": "address"
        }
      ],
      "name": "createBet",
      "outputs": [],
      "payable": false,
      "stateMutability": "nonpayable",
      "type": "function"
    },
    {
      "constant": false,
      "inputs": [
        {
          "name": "betIndex",
          "type": "uint256"
        },
        {
          "name": "option",
          "type": "uint256"
        }
      ],
      "name": "placeBet",
      "outputs": [],
      "payable": true,
      "stateMutability": "payable",
      "type": "function"
    },
    {
      "constant": false,
      "inputs": [
        {
          "name": "betIndex",
          "type": "uint256"
        },
        {
          "name": "outcome",
          "type": "uint256"
        }
      ],
      "name": "resolveBet",
      "outputs": [],
      "payable": false,
      "stateMutability": "nonpayable",
      "type": "function"
    },
    {
      "constant": false,
      "inputs": [
        {
          "name": "betIndex",
          "type": "uint256"
        }
      ],
      "name": "withdraw",
      "outputs": [],
      "payable": false,
      "stateMutability": "nonpayable",
      "type": "function"
    }
  ],
  "bytecode": "0x608060405234801561001057600080fd5b50611e32806100206000396000f3fe60806040526004361061007b5760003560e01c80635cb5804a1161004e5780635cb5804a146101455780637d06a8e11461016e578063916bf857146101ab578063c58138b4146101e85761007b565b80630ceb95501461008057806322af00fa146100bd5780632e1a7d4d146101005780634afe62b514610129575b600080fd5b34801561008c57600080fd5b506100a760048036036100a291908101906116d2565b610211565b6040516100b49190611aba565b60405180910390f35b3480156100c957600080fd5b506100e460048036036100df9190810190611680565b610240565b6040516100f79796959493929190611ad5565b60405180910390f35b34801561010c57600080fd5b5061012760048036036101229190810190611680565b6103ff565b005b610143600480360361013e919081019061170e565b61097d565b005b34801561015157600080fd5b5061016c6004803603610167919081019061170e565b610f2c565b005b34801561017a57600080fd5b50610195600480360361019091908101906116d2565b611247565b6040516101a29190611c52565b60405180910390f35b3480156101b757600080fd5b506101d260048036036101cd919081019061170e565b61126c565b6040516101df9190611c52565b60405180910390f35b3480156101f457600080fd5b5061020f600480360361020a91908101906115ed565b611291565b005b60026020528160005260406000206020528060005260406000206000915091509054906101000a900460ff1681565b6004818154811061024d57fe5b9060005260206000209060070201600091509050806000018054600181600116156101000203166002900480601f0160208091040260200160405190810160405280929190818152602001828054600181600116156101000203166002900480156102f95780601f106102ce576101008083540402835291602001916102f9565b820191906000526020600020905b8154815290600101906020018083116102dc57829003601f168201915b505050505090806001015490806002018054600181600116156101000203166002900480601f01602080910402602001604051908101604052809291908181526020018280546001816001161561010002031660029004801561039d5780601f106103725761010080835404028352916020019161039d565b820191906000526020600020905b81548152906001019060200180831161038057829003601f168201915b5050505050908060030160009054906101000a900473ffffffffffffffffffffffffffffffffffffffff16908060040154908060050154908060060160009054906101000a900473ffffffffffffffffffffffffffffffffffffffff16905087565b61040761140e565b6004828154811061041457fe5b90600052602060002090600702016040518060e0016040529081600082018054600181600116156101000203166002900480601f0160208091040260200160405190810160405280929190818152602001828054600181600116156101000203166002900480156104c65780601f1061049b576101008083540402835291602001916104c6565b820191906000526020600020905b8154815290600101906020018083116104a957829003601f168201915b5050505050815260200160018201548152602001600282018054600181600116156101000203166002900480601f0160208091040260200160405190810160405280929190818152602001828054600181600116156101000203166002900480156105725780601f1061054757610100808354040283529160200191610572565b820191906000526020600020905b81548152906001019060200180831161055557829003601f168201915b505050505081526020016003820160009054906101000a900473ffffffffffffffffffffffffffffffffffffffff1673ffffffffffffffffffffffffffffffffffffffff1673ffffffffffffffffffffffffffffffffffffffff16815260200160048201548152602001600582015481526020016006820160009054906101000a900473ffffffffffffffffffffffffffffffffffffffff1673ffffffffffffffffffffffffffffffffffffffff1673ffffffffffffffffffffffffffffffffffffffff168152505090506000816080015111610684576040517f08c379a000000000000000000000000000000000000000000000000000000000815260040161067b90611bb2565b60405180910390fd5b80608001516001600084815260200190815260200160002060003373ffffffffffffffffffffffffffffffffffffffff1673ffffffffffffffffffffffffffffffffffffffff168152602001908152602001600020541461071a576040517f08c379a000000000000000000000000000000000000000000000000000000000815260040161071190611bd2565b60405180910390fd5b600015156002600084815260200190815260200160002060003373ffffffffffffffffffffffffffffffffffffffff1673ffffffffffffffffffffffffffffffffffffffff16815260200190815260200160002060009054906101000a900460ff161515146107be576040517f08c379a00000000000000000000000000000000000000000000000000000000081526004016107b590611b72565b60405180910390fd5b60016002600084815260200190815260200160002060003373ffffffffffffffffffffffffffffffffffffffff1673ffffffffffffffffffffffffffffffffffffffff16815260200190815260200160002060006101000a81548160ff0219169083151502179055506000806000848152602001908152602001600020600083608001518152602001908152602001600020548260a001518161085d57fe5b049050600073ffffffffffffffffffffffffffffffffffffffff168260c0015173ffffffffffffffffffffffffffffffffffffffff1614156108e5573373ffffffffffffffffffffffffffffffffffffffff166108fc829081150290604051600060405180830381858888f193505050501580156108df573d6000803e3d6000fd5b50610978565b8160c0015173ffffffffffffffffffffffffffffffffffffffff1663a9059cbb33836040518363ffffffff1660e01b8152600401610924929190611a91565b602060405180830381600087803b15801561093e57600080fd5b505af1158015610952573d6000803e3d6000fd5b505050506040513d601f19601f8201168201806040525061097691908101906115c4565b505b505050565b61098561140e565b6004838154811061099257fe5b90600052602060002090600702016040518060e0016040529081600082018054600181600116156101000203166002900480601f016020809104026020016040519081016040528092919081815260200182805460018160011615610100020316600290048015610a445780601f10610a1957610100808354040283529160200191610a44565b820191906000526020600020905b815481529060010190602001808311610a2757829003601f168201915b5050505050815260200160018201548152602001600282018054600181600116156101000203166002900480601f016020809104026020016040519081016040528092919081815260200182805460018160011615610100020316600290048015610af05780601f10610ac557610100808354040283529160200191610af0565b820191906000526020600020905b815481529060010190602001808311610ad357829003601f168201915b505050505081526020016003820160009054906101000a900473ffffffffffffffffffffffffffffffffffffffff1673ffffffffffffffffffffffffffffffffffffffff1673ffffffffffffffffffffffffffffffffffffffff16815260200160048201548152602001600582015481526020016006820160009054906101000a900473ffffffffffffffffffffffffffffffffffffffff1673ffffffffffffffffffffffffffffffffffffffff1673ffffffffffffffffffffffffffffffffffffffff16815250509050600073ffffffffffffffffffffffffffffffffffffffff168160c0015173ffffffffffffffffffffffffffffffffffffffff161415610c3f5780602001513414610c3a576040517f08c379a0000000000000000000000000000000000000000000000000000000008152600401610c3190611bf2565b60405180910390fd5b610d6e565b80602001518160c0015173ffffffffffffffffffffffffffffffffffffffff1663dd62ed3e33306040518363ffffffff1660e01b8152600401610c83929190611a31565b60206040518083038186803b158015610c9b57600080fd5b505afa158015610caf573d6000803e3d6000fd5b505050506040513d601f19601f82011682018060405250610cd391908101906116a9565b50508060c0015173ffffffffffffffffffffffffffffffffffffffff166323b872dd333084602001516040518463ffffffff1660e01b8152600401610d1a93929190611a5a565b602060405180830381600087803b158015610d3457600080fd5b505af1158015610d48573d6000803e3d6000fd5b505050506040513d601f19601f82011682018060405250610d6c91908101906115c4565b505b60008211610db1576040517f08c379a0000000000000000000000000000000000000000000000000000000008152600401610da890611c32565b60405180910390fd5b6000816080015114610df8576040517f08c379a0000000000000000000000000000000000000000000000000000000008152600401610def90611c12565b60405180910390fd5b816001600085815260200190815260200160002060003373ffffffffffffffffffffffffffffffffffffffff1673ffffffffffffffffffffffffffffffffffffffff16815260200190815260200160002081905550600080848152602001908152602001600020600083815260200190815260200160002060008154809291906001019190505550600360008481526020019081526020016000203390806001815401808255809150509060018203906000526020600020016000909192909190916101000a81548173ffffffffffffffffffffffffffffffffffffffff021916908373ffffffffffffffffffffffffffffffffffffffff16021790555050806020015160048481548110610f0957fe5b906000526020600020906007020160050160008282540192505081905550505050565b610f3461140e565b60048381548110610f4157fe5b90600052602060002090600702016040518060e0016040529081600082018054600181600116156101000203166002900480601f016020809104026020016040519081016040528092919081815260200182805460018160011615610100020316600290048015610ff35780601f10610fc857610100808354040283529160200191610ff3565b820191906000526020600020905b815481529060010190602001808311610fd657829003601f168201915b5050505050815260200160018201548152602001600282018054600181600116156101000203166002900480601f01602080910402602001604051908101604052809291908181526020018280546001816001161561010002031660029004801561109f5780601f106110745761010080835404028352916020019161109f565b820191906000526020600020905b81548152906001019060200180831161108257829003601f168201915b505050505081526020016003820160009054906101000a900473ffffffffffffffffffffffffffffffffffffffff1673ffffffffffffffffffffffffffffffffffffffff1673ffffffffffffffffffffffffffffffffffffffff16815260200160048201548152602001600582015481526020016006820160009054906101000a900473ffffffffffffffffffffffffffffffffffffffff1673ffffffffffffffffffffffffffffffffffffffff1673ffffffffffffffffffffffffffffffffffffffff168152505090503373ffffffffffffffffffffffffffffffffffffffff16816060015173ffffffffffffffffffffffffffffffffffffffff16146111dc576040517f08c379a00000000000000000000000000000000000000000000000000000000081526004016111d390611b92565b60405180910390fd5b6000821161121f576040517f08c379a000000000000000000000000000000000000000000000000000000000815260040161121690611b52565b60405180910390fd5b816004848154811061122d57fe5b906000526020600020906007020160040181905550505050565b6001602052816000526040600020602052806000526040600020600091509150505481565b6000602052816000526040600020602052806000526040600020600091509150505481565b60046040518060e001604052808681526020018581526020018481526020013373ffffffffffffffffffffffffffffffffffffffff16815260200160008152602001600081526020018373ffffffffffffffffffffffffffffffffffffffff1681525090806001815401808255809150509060018203906000526020600020906007020160009091929091909150600082015181600001908051906020019061133b929190611477565b50602082015181600101556040820151816002019080519060200190611362929190611477565b5060608201518160030160006101000a81548173ffffffffffffffffffffffffffffffffffffffff021916908373ffffffffffffffffffffffffffffffffffffffff1602179055506080820151816004015560a0820151816005015560c08201518160060160006101000a81548173ffffffffffffffffffffffffffffffffffffffff021916908373ffffffffffffffffffffffffffffffffffffffff16021790555050505050505050565b6040518060e00160405280606081526020016000815260200160608152602001600073ffffffffffffffffffffffffffffffffffffffff1681526020016000815260200160008152602001600073ffffffffffffffffffffffffffffffffffffffff1681525090565b828054600181600116156101000203166002900490600052602060002090601f016020900481019282601f106114b857805160ff19168380011785556114e6565b828001600101855582156114e6579182015b828111156114e55782518255916020019190600101906114ca565b5b5090506114f391906114f7565b5090565b61151991905b808211156115155760008160009055506001016114fd565b5090565b90565b60008135905061152b81611db3565b92915050565b60008151905061154081611dca565b92915050565b600082601f83011261155757600080fd5b813561156a61156582611c9a565b611c6d565b9150808252602083016020830185838301111561158657600080fd5b611591838284611d60565b50505092915050565b6000813590506115a981611de1565b92915050565b6000815190506115be81611de1565b92915050565b6000602082840312156115d657600080fd5b60006115e484828501611531565b91505092915050565b6000806000806080858703121561160357600080fd5b600085013567ffffffffffffffff81111561161d57600080fd5b61162987828801611546565b945050602061163a8782880161159a565b935050604085013567ffffffffffffffff81111561165757600080fd5b61166387828801611546565b92505060606116748782880161151c565b91505092959194509250565b60006020828403121561169257600080fd5b60006116a08482850161159a565b91505092915050565b6000602082840312156116bb57600080fd5b60006116c9848285016115af565b91505092915050565b600080604083850312156116e557600080fd5b60006116f38582860161159a565b92505060206117048582860161151c565b9150509250929050565b6000806040838503121561172157600080fd5b600061172f8582860161159a565b92505060206117408582860161159a565b9150509250929050565b61175381611d2a565b82525050565b61176281611ce2565b82525050565b61177181611cf4565b82525050565b600061178282611cc6565b61178c8185611cd1565b935061179c818560208601611d6f565b6117a581611da2565b840191505092915050565b60006117bd601f83611cd1565b91507f557365203120626173656420696e646578657320666f72206f7574636f6d65006000830152602082019050919050565b60006117fd601883611cd1565b91507f596f7527766520616c72656164792077697468647261776e00000000000000006000830152602082019050919050565b600061183d602d83611cd1565b91507f596f7520646f6e27742068617665207065726d697373696f6e20746f2072657360008301527f6f6c7665207468697320626574000000000000000000000000000000000000006020830152604082019050919050565b60006118a3601383611cd1565b91507f426574206973206e6f74207265736f6c766564000000000000000000000000006000830152602082019050919050565b60006118e3602483611cd1565b91507f596f75206469646e27742073656c6563742074686520636f727265637420616e60008301527f73776572000000000000000000000000000000000000000000000000000000006020830152604082019050919050565b6000611949601d83611cd1565b91507f4d757374206d656574207468652062657420726571756972656d656e740000006000830152602082019050919050565b6000611989601983611cd1565b91507f43616e6e6f7420626574206f6e206120646f6e652067616d65000000000000006000830152602082019050919050565b60006119c9603383611cd1565b91507f596f75206d75737420757365203120626173656420696e646578657320666f7260008301527f2063686f6f73696e6720616e206f7074696f6e000000000000000000000000006020830152604082019050919050565b611a2b81611d20565b82525050565b6000604082019050611a46600083018561174a565b611a536020830184611759565b9392505050565b6000606082019050611a6f600083018661174a565b611a7c6020830185611759565b611a896040830184611a22565b949350505050565b6000604082019050611aa6600083018561174a565b611ab36020830184611a22565b9392505050565b6000602082019050611acf6000830184611768565b92915050565b600060e0820190508181036000830152611aef818a611777565b9050611afe6020830189611a22565b8181036040830152611b108188611777565b9050611b1f6060830187611759565b611b2c6080830186611a22565b611b3960a0830185611a22565b611b4660c0830184611759565b98975050505050505050565b60006020820190508181036000830152611b6b816117b0565b9050919050565b60006020820190508181036000830152611b8b816117f0565b9050919050565b60006020820190508181036000830152611bab81611830565b9050919050565b60006020820190508181036000830152611bcb81611896565b9050919050565b60006020820190508181036000830152611beb816118d6565b9050919050565b60006020820190508181036000830152611c0b8161193c565b9050919050565b60006020820190508181036000830152611c2b8161197c565b9050919050565b60006020820190508181036000830152611c4b816119bc565b9050919050565b6000602082019050611c676000830184611a22565b92915050565b6000604051905081810181811067ffffffffffffffff82111715611c9057600080fd5b8060405250919050565b600067ffffffffffffffff821115611cb157600080fd5b601f19601f8301169050602081019050919050565b600081519050919050565b600082825260208201905092915050565b6000611ced82611d00565b9050919050565b60008115159050919050565b600073ffffffffffffffffffffffffffffffffffffffff82169050919050565b6000819050919050565b6000611d3582611d3c565b9050919050565b6000611d4782611d4e565b9050919050565b6000611d5982611d00565b9050919050565b82818337600083830152505050565b60005b83811015611d8d578082015181840152602081019050611d72565b83811115611d9c576000848401525b50505050565b6000601f19601f8301169050919050565b611dbc81611ce2565b8114611dc757600080fd5b50565b611dd381611cf4565b8114611dde57600080fd5b50565b611dea81611d20565b8114611df557600080fd5b5056fea265627a7a723058207016b6eba1b96bd051c640154b86deefaba4b06a9476aa2b04e4e56291ff50bb6c6578706572696d656e74616cf50037",
  "source": "pragma experimental ABIEncoderV2;\npragma solidity ^0.5.1;\nimport \"./IERC20.sol\";\n\n\ncontract BitBets {\n\n  mapping(uint => mapping(uint => uint)) public choiceBets;\n  mapping(uint => mapping(address => uint)) public userBets;\n  mapping(uint => mapping(address => bool)) public userWithdrawn;\n  mapping(uint => address[]) takers;\n  struct Bet {\n    string terms;\n    uint amount;\n    string options;\n    address oracle;\n    uint outcome;\n    uint totalPool;\n    address paymentToken;\n  }\n\n  Bet[] public bets;\n\n  function createBet(string memory terms, uint amount, string memory options, address paymentToken) public {\n    bets.push(Bet({\n      terms: terms,\n      amount: amount,\n      options: options,\n      oracle: msg.sender,\n      outcome: 0,\n      totalPool: 0,\n      paymentToken: paymentToken\n    }));\n  }\n\n  function placeBet(uint betIndex, uint option) public payable {\n    Bet memory currentBet = bets[betIndex];\n    if(currentBet.paymentToken == address(0)) {\n      require(msg.value == currentBet.amount, \"Must meet the bet requirement\");\n    } else {\n      IERC20(currentBet.paymentToken).allowance(msg.sender, address(this)) >= currentBet.amount;\n      IERC20(currentBet.paymentToken).transferFrom(msg.sender, address(this), currentBet.amount);\n    }\n    require(option > 0, \"You must use 1 based indexes for choosing an option\");\n    require(currentBet.outcome == 0, \"Cannot bet on a done game\");\n    userBets[betIndex][msg.sender] = option;\n    choiceBets[betIndex][option]++;\n    takers[betIndex].push(msg.sender);\n    bets[betIndex].totalPool += currentBet.amount;\n  }\n\n  function resolveBet(uint betIndex, uint outcome) public {\n    Bet memory currentBet = bets[betIndex];\n    require(currentBet.oracle == msg.sender, \"You don't have permission to resolve this bet\");\n    require(outcome > 0, \"Use 1 based indexes for outcome\");\n    bets[betIndex].outcome = outcome;\n  }\n\n  function withdraw(uint betIndex) public {\n    Bet memory currentBet = bets[betIndex];\n    require(currentBet.outcome > 0, \"Bet is not resolved\");\n    require(userBets[betIndex][msg.sender] == currentBet.outcome, \"You didn't select the correct answer\");\n    require(userWithdrawn[betIndex][msg.sender] == false, \"You've already withdrawn\");\n    userWithdrawn[betIndex][msg.sender] = true;\n    uint reward = currentBet.totalPool / choiceBets[betIndex][currentBet.outcome];\n    if(currentBet.paymentToken == address(0x0)) {\n      address(msg.sender).transfer(reward);\n    } else {\n      IERC20(currentBet.paymentToken).transfer(msg.sender, reward);\n    }\n  }\n}\n",
  "sourcePath": "/Users/micah/dev/bitbets/src/web3/contracts/BitBets.sol",
  "compiler": {
    "name": "solc",
    "version": "0.5.8+commit.23d335f2.Emscripten.clang"
  },
  "schemaVersion": "3.0.11",
  "updatedAt": "2019-08-14T03:08:31.549Z",
  "devdoc": {
    "methods": {}
  },
  "userdoc": {
    "methods": {}
  }
}