{
  "contractName": "BitBets",
  "abi": [
    {
      "constant": true,
      "inputs": [
        {
          "name": "",
          "type": "uint256"
        }
      ],
      "name": "bets",
      "outputs": [
        {
          "name": "terms",
          "type": "string"
        },
        {
          "name": "amount",
          "type": "uint256"
        },
        {
          "name": "options",
          "type": "string"
        },
        {
          "name": "oracle",
          "type": "address"
        },
        {
          "name": "outcome",
          "type": "uint256"
        },
        {
          "name": "totalPool",
          "type": "uint256"
        },
        {
          "name": "paymentToken",
          "type": "address"
        }
      ],
      "payable": false,
      "stateMutability": "view",
      "type": "function"
    },
    {
      "constant": false,
      "inputs": [
        {
          "name": "terms",
          "type": "string"
        },
        {
          "name": "amount",
          "type": "uint256"
        },
        {
          "name": "options",
          "type": "string"
        },
        {
          "name": "paymentToken",
          "type": "address"
        }
      ],
      "name": "createBet",
      "outputs": [],
      "payable": false,
      "stateMutability": "nonpayable",
      "type": "function"
    },
    {
      "constant": false,
      "inputs": [
        {
          "name": "betIndex",
          "type": "uint256"
        },
        {
          "name": "option",
          "type": "uint256"
        }
      ],
      "name": "placeBet",
      "outputs": [],
      "payable": true,
      "stateMutability": "payable",
      "type": "function"
    },
    {
      "constant": false,
      "inputs": [
        {
          "name": "betIndex",
          "type": "uint256"
        },
        {
          "name": "outcome",
          "type": "uint256"
        }
      ],
      "name": "resolveBet",
      "outputs": [],
      "payable": false,
      "stateMutability": "nonpayable",
      "type": "function"
    },
    {
      "constant": false,
      "inputs": [
        {
          "name": "betIndex",
          "type": "uint256"
        }
      ],
      "name": "withdraw",
      "outputs": [],
      "payable": false,
      "stateMutability": "nonpayable",
      "type": "function"
    }
  ],
  "bytecode": "0x608060405234801561001057600080fd5b50611c1c806100206000396000f3fe60806040526004361061004a5760003560e01c806322af00fa1461004f5780632e1a7d4d146100925780634afe62b5146100bb5780635cb5804a146100d7578063c58138b414610100575b600080fd5b34801561005b57600080fd5b50610076600480360361007191908101906114c5565b610129565b60405161008997969594939291906118da565b60405180910390f35b34801561009e57600080fd5b506100b960048036036100b491908101906114c5565b6102e8565b005b6100d560048036036100d09190810190611517565b610832565b005b3480156100e357600080fd5b506100fe60048036036100f99190810190611517565b610dbb565b005b34801561010c57600080fd5b5061012760048036036101229190810190611432565b6110d6565b005b6003818154811061013657fe5b9060005260206000209060070201600091509050806000018054600181600116156101000203166002900480601f0160208091040260200160405190810160405280929190818152602001828054600181600116156101000203166002900480156101e25780601f106101b7576101008083540402835291602001916101e2565b820191906000526020600020905b8154815290600101906020018083116101c557829003601f168201915b505050505090806001015490806002018054600181600116156101000203166002900480601f0160208091040260200160405190810160405280929190818152602001828054600181600116156101000203166002900480156102865780601f1061025b57610100808354040283529160200191610286565b820191906000526020600020905b81548152906001019060200180831161026957829003601f168201915b5050505050908060030160009054906101000a900473ffffffffffffffffffffffffffffffffffffffff16908060040154908060050154908060060160009054906101000a900473ffffffffffffffffffffffffffffffffffffffff16905087565b6102f0611253565b600382815481106102fd57fe5b90600052602060002090600702016040518060e0016040529081600082018054600181600116156101000203166002900480601f0160208091040260200160405190810160405280929190818152602001828054600181600116156101000203166002900480156103af5780601f10610384576101008083540402835291602001916103af565b820191906000526020600020905b81548152906001019060200180831161039257829003601f168201915b5050505050815260200160018201548152602001600282018054600181600116156101000203166002900480601f01602080910402602001604051908101604052809291908181526020018280546001816001161561010002031660029004801561045b5780601f106104305761010080835404028352916020019161045b565b820191906000526020600020905b81548152906001019060200180831161043e57829003601f168201915b505050505081526020016003820160009054906101000a900473ffffffffffffffffffffffffffffffffffffffff1673ffffffffffffffffffffffffffffffffffffffff1673ffffffffffffffffffffffffffffffffffffffff16815260200160048201548152602001600582015481526020016006820160009054906101000a900473ffffffffffffffffffffffffffffffffffffffff1673ffffffffffffffffffffffffffffffffffffffff1673ffffffffffffffffffffffffffffffffffffffff16815250509050600081608001511161056d576040517f08c379a0000000000000000000000000000000000000000000000000000000008152600401610564906119b7565b60405180910390fd5b806080015160008084815260200190815260200160002060003373ffffffffffffffffffffffffffffffffffffffff1673ffffffffffffffffffffffffffffffffffffffff1681526020019081526020016000205414610602576040517f08c379a00000000000000000000000000000000000000000000000000000000081526004016105f9906119d7565b60405180910390fd5b600015156001600084815260200190815260200160002060003373ffffffffffffffffffffffffffffffffffffffff1673ffffffffffffffffffffffffffffffffffffffff16815260200190815260200160002060009054906101000a900460ff161515146106a6576040517f08c379a000000000000000000000000000000000000000000000000000000000815260040161069d90611977565b60405180910390fd5b600180600084815260200190815260200160002060003373ffffffffffffffffffffffffffffffffffffffff1673ffffffffffffffffffffffffffffffffffffffff16815260200190815260200160002060006101000a81548160ff021916908315150217905550600073ffffffffffffffffffffffffffffffffffffffff168160c0015173ffffffffffffffffffffffffffffffffffffffff161415610797573373ffffffffffffffffffffffffffffffffffffffff166108fc82602001519081150290604051600060405180830381858888f19350505050158015610791573d6000803e3d6000fd5b5061082e565b8060c0015173ffffffffffffffffffffffffffffffffffffffff1663a9059cbb3383602001516040518363ffffffff1660e01b81526004016107da9291906118b1565b602060405180830381600087803b1580156107f457600080fd5b505af1158015610808573d6000803e3d6000fd5b505050506040513d601f19601f8201168201806040525061082c9190810190611409565b505b5050565b61083a611253565b6003838154811061084757fe5b90600052602060002090600702016040518060e0016040529081600082018054600181600116156101000203166002900480601f0160208091040260200160405190810160405280929190818152602001828054600181600116156101000203166002900480156108f95780601f106108ce576101008083540402835291602001916108f9565b820191906000526020600020905b8154815290600101906020018083116108dc57829003601f168201915b5050505050815260200160018201548152602001600282018054600181600116156101000203166002900480601f0160208091040260200160405190810160405280929190818152602001828054600181600116156101000203166002900480156109a55780601f1061097a576101008083540402835291602001916109a5565b820191906000526020600020905b81548152906001019060200180831161098857829003601f168201915b505050505081526020016003820160009054906101000a900473ffffffffffffffffffffffffffffffffffffffff1673ffffffffffffffffffffffffffffffffffffffff1673ffffffffffffffffffffffffffffffffffffffff16815260200160048201548152602001600582015481526020016006820160009054906101000a900473ffffffffffffffffffffffffffffffffffffffff1673ffffffffffffffffffffffffffffffffffffffff1673ffffffffffffffffffffffffffffffffffffffff16815250509050600073ffffffffffffffffffffffffffffffffffffffff168160c0015173ffffffffffffffffffffffffffffffffffffffff161415610af45780602001513414610aef576040517f08c379a0000000000000000000000000000000000000000000000000000000008152600401610ae6906119f7565b60405180910390fd5b610c6a565b80602001518160c0015173ffffffffffffffffffffffffffffffffffffffff1663dd62ed3e33306040518363ffffffff1660e01b8152600401610b38929190611851565b60206040518083038186803b158015610b5057600080fd5b505afa158015610b64573d6000803e3d6000fd5b505050506040513d601f19601f82011682018060405250610b8891908101906114ee565b1015610bc9576040517f08c379a0000000000000000000000000000000000000000000000000000000008152600401610bc090611a17565b60405180910390fd5b8060c0015173ffffffffffffffffffffffffffffffffffffffff166323b872dd333084602001516040518463ffffffff1660e01b8152600401610c0e9392919061187a565b602060405180830381600087803b158015610c2857600080fd5b505af1158015610c3c573d6000803e3d6000fd5b505050506040513d601f19601f82011682018060405250610c609190810190611409565b610c6957600080fd5b5b60008211610cad576040517f08c379a0000000000000000000000000000000000000000000000000000000008152600401610ca490611a37565b60405180910390fd5b600081608001511415610db6578160008085815260200190815260200160002060003373ffffffffffffffffffffffffffffffffffffffff1673ffffffffffffffffffffffffffffffffffffffff16815260200190815260200160002081905550600260008481526020019081526020016000203390806001815401808255809150509060018203906000526020600020016000909192909190916101000a81548173ffffffffffffffffffffffffffffffffffffffff021916908373ffffffffffffffffffffffffffffffffffffffff16021790555050806020015160038481548110610d9757fe5b9060005260206000209060070201600501600082825401925050819055505b505050565b610dc3611253565b60038381548110610dd057fe5b90600052602060002090600702016040518060e0016040529081600082018054600181600116156101000203166002900480601f016020809104026020016040519081016040528092919081815260200182805460018160011615610100020316600290048015610e825780601f10610e5757610100808354040283529160200191610e82565b820191906000526020600020905b815481529060010190602001808311610e6557829003601f168201915b5050505050815260200160018201548152602001600282018054600181600116156101000203166002900480601f016020809104026020016040519081016040528092919081815260200182805460018160011615610100020316600290048015610f2e5780601f10610f0357610100808354040283529160200191610f2e565b820191906000526020600020905b815481529060010190602001808311610f1157829003601f168201915b505050505081526020016003820160009054906101000a900473ffffffffffffffffffffffffffffffffffffffff1673ffffffffffffffffffffffffffffffffffffffff1673ffffffffffffffffffffffffffffffffffffffff16815260200160048201548152602001600582015481526020016006820160009054906101000a900473ffffffffffffffffffffffffffffffffffffffff1673ffffffffffffffffffffffffffffffffffffffff1673ffffffffffffffffffffffffffffffffffffffff168152505090503373ffffffffffffffffffffffffffffffffffffffff16816060015173ffffffffffffffffffffffffffffffffffffffff161461106b576040517f08c379a000000000000000000000000000000000000000000000000000000000815260040161106290611997565b60405180910390fd5b600082116110ae576040517f08c379a00000000000000000000000000000000000000000000000000000000081526004016110a590611957565b60405180910390fd5b81600384815481106110bc57fe5b906000526020600020906007020160040181905550505050565b60036040518060e001604052808681526020018581526020018481526020013373ffffffffffffffffffffffffffffffffffffffff16815260200160008152602001600081526020018373ffffffffffffffffffffffffffffffffffffffff168152509080600181540180825580915050906001820390600052602060002090600702016000909192909190915060008201518160000190805190602001906111809291906112bc565b506020820151816001015560408201518160020190805190602001906111a79291906112bc565b5060608201518160030160006101000a81548173ffffffffffffffffffffffffffffffffffffffff021916908373ffffffffffffffffffffffffffffffffffffffff1602179055506080820151816004015560a0820151816005015560c08201518160060160006101000a81548173ffffffffffffffffffffffffffffffffffffffff021916908373ffffffffffffffffffffffffffffffffffffffff16021790555050505050505050565b6040518060e00160405280606081526020016000815260200160608152602001600073ffffffffffffffffffffffffffffffffffffffff1681526020016000815260200160008152602001600073ffffffffffffffffffffffffffffffffffffffff1681525090565b828054600181600116156101000203166002900490600052602060002090601f016020900481019282601f106112fd57805160ff191683800117855561132b565b8280016001018555821561132b579182015b8281111561132a57825182559160200191906001019061130f565b5b509050611338919061133c565b5090565b61135e91905b8082111561135a576000816000905550600101611342565b5090565b90565b60008135905061137081611b9d565b92915050565b60008151905061138581611bb4565b92915050565b600082601f83011261139c57600080fd5b81356113af6113aa82611a84565b611a57565b915080825260208301602083018583830111156113cb57600080fd5b6113d6838284611b4a565b50505092915050565b6000813590506113ee81611bcb565b92915050565b60008151905061140381611bcb565b92915050565b60006020828403121561141b57600080fd5b600061142984828501611376565b91505092915050565b6000806000806080858703121561144857600080fd5b600085013567ffffffffffffffff81111561146257600080fd5b61146e8782880161138b565b945050602061147f878288016113df565b935050604085013567ffffffffffffffff81111561149c57600080fd5b6114a88782880161138b565b92505060606114b987828801611361565b91505092959194509250565b6000602082840312156114d757600080fd5b60006114e5848285016113df565b91505092915050565b60006020828403121561150057600080fd5b600061150e848285016113f4565b91505092915050565b6000806040838503121561152a57600080fd5b6000611538858286016113df565b9250506020611549858286016113df565b9150509250929050565b61155c81611b14565b82525050565b61156b81611acc565b82525050565b600061157c82611ab0565b6115868185611abb565b9350611596818560208601611b59565b61159f81611b8c565b840191505092915050565b60006115b7601f83611abb565b91507f557365203120626173656420696e646578657320666f72206f7574636f6d65006000830152602082019050919050565b60006115f7601883611abb565b91507f596f7527766520616c72656164792077697468647261776e00000000000000006000830152602082019050919050565b6000611637602d83611abb565b91507f596f7520646f6e27742068617665207065726d697373696f6e20746f2072657360008301527f6f6c7665207468697320626574000000000000000000000000000000000000006020830152604082019050919050565b600061169d601383611abb565b91507f426574206973206e6f74207265736f6c766564000000000000000000000000006000830152602082019050919050565b60006116dd602483611abb565b91507f596f75206469646e27742073656c6563742074686520636f727265637420616e60008301527f73776572000000000000000000000000000000000000000000000000000000006020830152604082019050919050565b6000611743601d83611abb565b91507f4d757374206d656574207468652062657420726571756972656d656e740000006000830152602082019050919050565b6000611783602a83611abb565b91507f4d757374206861766520617070726f76656420746869732062657420746f206d60008301527f6f766520746f6b656e73000000000000000000000000000000000000000000006020830152604082019050919050565b60006117e9603383611abb565b91507f596f75206d75737420757365203120626173656420696e646578657320666f7260008301527f2063686f6f73696e6720616e206f7074696f6e000000000000000000000000006020830152604082019050919050565b61184b81611b0a565b82525050565b60006040820190506118666000830185611553565b6118736020830184611562565b9392505050565b600060608201905061188f6000830186611553565b61189c6020830185611562565b6118a96040830184611842565b949350505050565b60006040820190506118c66000830185611553565b6118d36020830184611842565b9392505050565b600060e08201905081810360008301526118f4818a611571565b90506119036020830189611842565b81810360408301526119158188611571565b90506119246060830187611562565b6119316080830186611842565b61193e60a0830185611842565b61194b60c0830184611562565b98975050505050505050565b60006020820190508181036000830152611970816115aa565b9050919050565b60006020820190508181036000830152611990816115ea565b9050919050565b600060208201905081810360008301526119b08161162a565b9050919050565b600060208201905081810360008301526119d081611690565b9050919050565b600060208201905081810360008301526119f0816116d0565b9050919050565b60006020820190508181036000830152611a1081611736565b9050919050565b60006020820190508181036000830152611a3081611776565b9050919050565b60006020820190508181036000830152611a50816117dc565b9050919050565b6000604051905081810181811067ffffffffffffffff82111715611a7a57600080fd5b8060405250919050565b600067ffffffffffffffff821115611a9b57600080fd5b601f19601f8301169050602081019050919050565b600081519050919050565b600082825260208201905092915050565b6000611ad782611aea565b9050919050565b60008115159050919050565b600073ffffffffffffffffffffffffffffffffffffffff82169050919050565b6000819050919050565b6000611b1f82611b26565b9050919050565b6000611b3182611b38565b9050919050565b6000611b4382611aea565b9050919050565b82818337600083830152505050565b60005b83811015611b77578082015181840152602081019050611b5c565b83811115611b86576000848401525b50505050565b6000601f19601f8301169050919050565b611ba681611acc565b8114611bb157600080fd5b50565b611bbd81611ade565b8114611bc857600080fd5b50565b611bd481611b0a565b8114611bdf57600080fd5b5056fea265627a7a72305820a63ad318ce2194daffcb9470810a4a918a16606e7993da06e60c92139ffac49a6c6578706572696d656e74616cf50037",
  "source": "pragma experimental ABIEncoderV2;\npragma solidity ^0.5.1;\nimport \"./IERC20.sol\";\n\n\ncontract BitBets {\n\n  mapping(uint => mapping(address => uint)) userBets;\n  mapping(uint => mapping(address => bool)) userWithdrawn;\n  mapping(uint => address[]) takers;\n  struct Bet {\n    string terms;\n    uint amount;\n    string options;\n    address oracle;\n    uint outcome;\n    uint totalPool;\n    address paymentToken;\n  }\n\n  Bet[] public bets;\n\n  function createBet(string memory terms, uint amount, string memory options, address paymentToken) public {\n    bets.push(Bet({\n      terms: terms,\n      amount: amount,\n      options: options,\n      oracle: msg.sender,\n      outcome: 0,\n      totalPool: 0,\n      paymentToken: paymentToken\n    }));\n  }\n\n  function placeBet(uint betIndex, uint option) public payable {\n    Bet memory currentBet = bets[betIndex];\n    if(currentBet.paymentToken == address(0x0)) {\n      require(msg.value == currentBet.amount, \"Must meet the bet requirement\");\n    } else {\n      require(IERC20(currentBet.paymentToken).allowance(msg.sender, address(this)) >= currentBet.amount, \"Must have approved this bet to move tokens\");\n      require(IERC20(currentBet.paymentToken).transferFrom(msg.sender, address(this), currentBet.amount));\n    }\n\n    require(option > 0, \"You must use 1 based indexes for choosing an option\");\n    if(currentBet.outcome == 0) {\n      userBets[betIndex][msg.sender] = option;\n      takers[betIndex].push(msg.sender);\n      bets[betIndex].totalPool += currentBet.amount;\n    }\n  }\n\n  function resolveBet(uint betIndex, uint outcome) public {\n    Bet memory currentBet = bets[betIndex];\n    require(currentBet.oracle == msg.sender, \"You don't have permission to resolve this bet\");\n    require(outcome > 0, \"Use 1 based indexes for outcome\");\n    bets[betIndex].outcome = outcome;\n  }\n\n  function withdraw(uint betIndex) public {\n    Bet memory currentBet = bets[betIndex];\n    require(currentBet.outcome > 0, \"Bet is not resolved\");\n    require(userBets[betIndex][msg.sender] == currentBet.outcome, \"You didn't select the correct answer\");\n    require(userWithdrawn[betIndex][msg.sender] == false, \"You've already withdrawn\");\n    userWithdrawn[betIndex][msg.sender] = true;\n    if(currentBet.paymentToken == address(0x0)) {\n      address(msg.sender).transfer(currentBet.amount);\n    } else {\n      IERC20(currentBet.paymentToken).transfer(msg.sender, currentBet.amount);\n    }\n  }\n}\n",
  "sourcePath": "/Users/micah/dev/bitbets/src/web3/contracts/BitBets.sol",
  "compiler": {
    "name": "solc",
    "version": "0.5.8+commit.23d335f2.Emscripten.clang"
  },
  "schemaVersion": "3.0.11",
  "updatedAt": "2019-08-13T19:57:33.877Z",
  "devdoc": {
    "methods": {}
  },
  "userdoc": {
    "methods": {}
  }
}