{
  "contractName": "BitBets",
  "abi": [
    {
      "constant": true,
      "inputs": [
        {
          "name": "",
          "type": "uint256"
        },
        {
          "name": "",
          "type": "address"
        }
      ],
      "name": "userWithdrawn",
      "outputs": [
        {
          "name": "",
          "type": "bool"
        }
      ],
      "payable": false,
      "stateMutability": "view",
      "type": "function"
    },
    {
      "constant": true,
      "inputs": [
        {
          "name": "",
          "type": "uint256"
        }
      ],
      "name": "bets",
      "outputs": [
        {
          "name": "terms",
          "type": "string"
        },
        {
          "name": "amount",
          "type": "uint256"
        },
        {
          "name": "options",
          "type": "string"
        },
        {
          "name": "oracle",
          "type": "address"
        },
        {
          "name": "outcome",
          "type": "uint256"
        },
        {
          "name": "totalPool",
          "type": "uint256"
        },
        {
          "name": "paymentToken",
          "type": "address"
        },
        {
          "name": "scrapped",
          "type": "bool"
        }
      ],
      "payable": false,
      "stateMutability": "view",
      "type": "function"
    },
    {
      "constant": true,
      "inputs": [
        {
          "name": "",
          "type": "uint256"
        },
        {
          "name": "",
          "type": "address"
        }
      ],
      "name": "userBets",
      "outputs": [
        {
          "name": "",
          "type": "uint256"
        }
      ],
      "payable": false,
      "stateMutability": "view",
      "type": "function"
    },
    {
      "constant": true,
      "inputs": [],
      "name": "scrappedBalance",
      "outputs": [
        {
          "name": "",
          "type": "uint256"
        }
      ],
      "payable": false,
      "stateMutability": "view",
      "type": "function"
    },
    {
      "constant": true,
      "inputs": [],
      "name": "owner",
      "outputs": [
        {
          "name": "",
          "type": "address"
        }
      ],
      "payable": false,
      "stateMutability": "view",
      "type": "function"
    },
    {
      "constant": true,
      "inputs": [
        {
          "name": "",
          "type": "uint256"
        },
        {
          "name": "",
          "type": "uint256"
        }
      ],
      "name": "choiceBets",
      "outputs": [
        {
          "name": "",
          "type": "uint256"
        }
      ],
      "payable": false,
      "stateMutability": "view",
      "type": "function"
    },
    {
      "inputs": [],
      "payable": false,
      "stateMutability": "nonpayable",
      "type": "constructor"
    },
    {
      "constant": false,
      "inputs": [
        {
          "name": "terms",
          "type": "string"
        },
        {
          "name": "amount",
          "type": "uint256"
        },
        {
          "name": "options",
          "type": "string"
        },
        {
          "name": "paymentToken",
          "type": "address"
        }
      ],
      "name": "createBet",
      "outputs": [],
      "payable": false,
      "stateMutability": "nonpayable",
      "type": "function"
    },
    {
      "constant": false,
      "inputs": [
        {
          "name": "betIndex",
          "type": "uint256"
        },
        {
          "name": "option",
          "type": "uint256"
        }
      ],
      "name": "placeBet",
      "outputs": [],
      "payable": true,
      "stateMutability": "payable",
      "type": "function"
    },
    {
      "constant": false,
      "inputs": [
        {
          "name": "betIndex",
          "type": "uint256"
        },
        {
          "name": "outcome",
          "type": "uint256"
        }
      ],
      "name": "resolveBet",
      "outputs": [],
      "payable": false,
      "stateMutability": "nonpayable",
      "type": "function"
    },
    {
      "constant": false,
      "inputs": [
        {
          "name": "betIndex",
          "type": "uint256"
        }
      ],
      "name": "scrapBet",
      "outputs": [],
      "payable": false,
      "stateMutability": "nonpayable",
      "type": "function"
    },
    {
      "constant": false,
      "inputs": [],
      "name": "sweepScraps",
      "outputs": [],
      "payable": false,
      "stateMutability": "nonpayable",
      "type": "function"
    },
    {
      "constant": false,
      "inputs": [
        {
          "name": "betIndex",
          "type": "uint256"
        }
      ],
      "name": "withdraw",
      "outputs": [],
      "payable": false,
      "stateMutability": "nonpayable",
      "type": "function"
    }
  ],
  "bytecode": "0x608060405234801561001057600080fd5b5033600560006101000a81548173ffffffffffffffffffffffffffffffffffffffff021916908373ffffffffffffffffffffffffffffffffffffffff160217905550612336806100616000396000f3006080604052600436106100ba576000357c0100000000000000000000000000000000000000000000000000000000900463ffffffff1680630ceb9550146100bf5780631bbfd34a1461012457806322af00fa146101515780632e1a7d4d146102e95780634afe62b5146103165780635cb5804a146103405780637d06a8e114610377578063845abcc6146103d85780638da5cb5b14610403578063916bf8571461045a57806398d465ff146104a5578063c58138b4146104bc575b600080fd5b3480156100cb57600080fd5b5061010a60048036038101908080359060200190929190803573ffffffffffffffffffffffffffffffffffffffff169060200190929190505050610595565b604051808215151515815260200191505060405180910390f35b34801561013057600080fd5b5061014f600480360381019080803590602001909291905050506105c4565b005b34801561015d57600080fd5b5061017c6004803603810190808035906020019092919050505061088a565b6040518080602001898152602001806020018873ffffffffffffffffffffffffffffffffffffffff1673ffffffffffffffffffffffffffffffffffffffff1681526020018781526020018681526020018573ffffffffffffffffffffffffffffffffffffffff1673ffffffffffffffffffffffffffffffffffffffff1681526020018415151515815260200183810383528b818151815260200191508051906020019080838360005b83811015610240578082015181840152602081019050610225565b50505050905090810190601f16801561026d5780820380516001836020036101000a031916815260200191505b50838103825289818151815260200191508051906020019080838360005b838110156102a657808201518184015260208101905061028b565b50505050905090810190601f1680156102d35780820380516001836020036101000a031916815260200191505b509a505050505050505050505060405180910390f35b3480156102f557600080fd5b5061031460048036038101908080359060200190929190505050610a5e565b005b61033e6004803603810190808035906020019092919080359060200190929190505050611261565b005b34801561034c57600080fd5b506103756004803603810190808035906020019092919080359060200190929190505050611bcc565b005b34801561038357600080fd5b506103c260048036038101908080359060200190929190803573ffffffffffffffffffffffffffffffffffffffff169060200190929190505050611ebb565b6040518082815260200191505060405180910390f35b3480156103e457600080fd5b506103ed611ee0565b6040518082815260200191505060405180910390f35b34801561040f57600080fd5b50610418611ee6565b604051808273ffffffffffffffffffffffffffffffffffffffff1673ffffffffffffffffffffffffffffffffffffffff16815260200191505060405180910390f35b34801561046657600080fd5b5061048f6004803603810190808035906020019092919080359060200190929190505050611f0c565b6040518082815260200191505060405180910390f35b3480156104b157600080fd5b506104ba611f31565b005b3480156104c857600080fd5b50610593600480360381019080803590602001908201803590602001908080601f016020809104026020016040519081016040528093929190818152602001838380828437820191505050505050919291929080359060200190929190803590602001908201803590602001908080601f0160208091040260200160405190810160405280939291908181526020018383808284378201915050505050509192919290803573ffffffffffffffffffffffffffffffffffffffff169060200190929190505050612049565b005b60026020528160005260406000206020528060005260406000206000915091509054906101000a900460ff1681565b803373ffffffffffffffffffffffffffffffffffffffff166004828154811015156105eb57fe5b906000526020600020906007020160030160009054906101000a900473ffffffffffffffffffffffffffffffffffffffff1673ffffffffffffffffffffffffffffffffffffffff161415156106ce576040517f08c379a00000000000000000000000000000000000000000000000000000000081526004018080602001828103825260238152602001807f596f75206d75737420626520746865206f7261636c6520666f7220746869732081526020017f626574000000000000000000000000000000000000000000000000000000000081525060400191505060405180910390fd5b8160006004828154811015156106e057fe5b906000526020600020906007020160040154141515610767576040517f08c379a00000000000000000000000000000000000000000000000000000000081526004018080602001828103825260178152602001807f42657420697320616c7265616479207265736f6c76656400000000000000000081525060200191505060405180910390fd5b6000151560048281548110151561077a57fe5b906000526020600020906007020160060160149054906101000a900460ff161515141515610810576040517f08c379a000000000000000000000000000000000000000000000000000000000815260040180806020018281038252600f8152602001807f426574206973207363726170706564000000000000000000000000000000000081525060200191505060405180910390fd5b600160048481548110151561082157fe5b906000526020600020906007020160060160146101000a81548160ff021916908315150217905550600260048481548110151561085a57fe5b90600052602060002090600702016005015481151561087557fe5b04600660008282540192505081905550505050565b60048181548110151561089957fe5b9060005260206000209060070201600091509050806000018054600181600116156101000203166002900480601f0160208091040260200160405190810160405280929190818152602001828054600181600116156101000203166002900480156109455780601f1061091a57610100808354040283529160200191610945565b820191906000526020600020905b81548152906001019060200180831161092857829003601f168201915b505050505090806001015490806002018054600181600116156101000203166002900480601f0160208091040260200160405190810160405280929190818152602001828054600181600116156101000203166002900480156109e95780601f106109be576101008083540402835291602001916109e9565b820191906000526020600020905b8154815290600101906020018083116109cc57829003601f168201915b5050505050908060030160009054906101000a900473ffffffffffffffffffffffffffffffffffffffff16908060040154908060050154908060060160009054906101000a900473ffffffffffffffffffffffffffffffffffffffff16908060060160149054906101000a900460ff16905088565b610a666121f1565b600082600481815481101515610a7857fe5b906000526020600020906007020160060160149054906101000a900460ff1680610ac357506000600482815481101515610aae57fe5b90600052602060002090600702016004015414155b1515610b37576040517f08c379a00000000000000000000000000000000000000000000000000000000081526004018080602001828103825260178152602001807f426574206973206e6f74207265736f6c7665642079657400000000000000000081525060200191505060405180910390fd5b83600015156002600083815260200190815260200160002060003373ffffffffffffffffffffffffffffffffffffffff1673ffffffffffffffffffffffffffffffffffffffff16815260200190815260200160002060009054906101000a900460ff161515141515610c11576040517f08c379a00000000000000000000000000000000000000000000000000000000081526004018080602001828103825260188152602001807f596f7527766520616c72656164792077697468647261776e000000000000000081525060200191505060405180910390fd5b8460006001600083815260200190815260200160002060003373ffffffffffffffffffffffffffffffffffffffff1673ffffffffffffffffffffffffffffffffffffffff16815260200190815260200160002054111515610cda576040517f08c379a000000000000000000000000000000000000000000000000000000000815260040180806020018281038252601a8152602001807f596f75206d757374206861766520706c6163656420612062657400000000000081525060200191505060405180910390fd5b600486815481101515610ce957fe5b90600052602060002090600702016101006040519081016040529081600082018054600181600116156101000203166002900480601f016020809104026020016040519081016040528092919081815260200182805460018160011615610100020316600290048015610d9d5780601f10610d7257610100808354040283529160200191610d9d565b820191906000526020600020905b815481529060010190602001808311610d8057829003601f168201915b5050505050815260200160018201548152602001600282018054600181600116156101000203166002900480601f016020809104026020016040519081016040528092919081815260200182805460018160011615610100020316600290048015610e495780601f10610e1e57610100808354040283529160200191610e49565b820191906000526020600020905b815481529060010190602001808311610e2c57829003601f168201915b505050505081526020016003820160009054906101000a900473ffffffffffffffffffffffffffffffffffffffff1673ffffffffffffffffffffffffffffffffffffffff1673ffffffffffffffffffffffffffffffffffffffff16815260200160048201548152602001600582015481526020016006820160009054906101000a900473ffffffffffffffffffffffffffffffffffffffff1673ffffffffffffffffffffffffffffffffffffffff1673ffffffffffffffffffffffffffffffffffffffff1681526020016006820160149054906101000a900460ff161515151581525050945060009350600015158560e00151151514156110735784608001516001600088815260200190815260200160002060003373ffffffffffffffffffffffffffffffffffffffff1673ffffffffffffffffffffffffffffffffffffffff16815260200190815260200160002054141515611035576040517f08c379a00000000000000000000000000000000000000000000000000000000081526004018080602001828103825260248152602001807f596f75206469646e27742073656c6563742074686520636f727265637420616e81526020017f737765720000000000000000000000000000000000000000000000000000000081525060400191505060405180910390fd5b600080878152602001908152602001600020600086608001518152602001908152602001600020548560a0015181151561106b57fe5b049350611087565b6002856020015181151561108357fe5b0493505b60016002600088815260200190815260200160002060003373ffffffffffffffffffffffffffffffffffffffff1673ffffffffffffffffffffffffffffffffffffffff16815260200190815260200160002060006101000a81548160ff021916908315150217905550600073ffffffffffffffffffffffffffffffffffffffff168560c0015173ffffffffffffffffffffffffffffffffffffffff161415611175573373ffffffffffffffffffffffffffffffffffffffff166108fc859081150290604051600060405180830381858888f1935050505015801561116f573d6000803e3d6000fd5b50611259565b8460c0015173ffffffffffffffffffffffffffffffffffffffff1663a9059cbb33866040518363ffffffff167c0100000000000000000000000000000000000000000000000000000000028152600401808373ffffffffffffffffffffffffffffffffffffffff1673ffffffffffffffffffffffffffffffffffffffff16815260200182815260200192505050602060405180830381600087803b15801561121c57600080fd5b505af1158015611230573d6000803e3d6000fd5b505050506040513d602081101561124657600080fd5b8101908080519060200190929190505050505b505050505050565b6112696121f1565b82600060048281548110151561127b57fe5b906000526020600020906007020160040154141515611302576040517f08c379a00000000000000000000000000000000000000000000000000000000081526004018080602001828103825260178152602001807f42657420697320616c7265616479207265736f6c76656400000000000000000081525060200191505060405180910390fd5b6000151560048281548110151561131557fe5b906000526020600020906007020160060160149054906101000a900460ff1615151415156113ab576040517f08c379a000000000000000000000000000000000000000000000000000000000815260040180806020018281038252600f8152602001807f426574206973207363726170706564000000000000000000000000000000000081525060200191505060405180910390fd5b6004848154811015156113ba57fe5b90600052602060002090600702016101006040519081016040529081600082018054600181600116156101000203166002900480601f01602080910402602001604051908101604052809291908181526020018280546001816001161561010002031660029004801561146e5780601f106114435761010080835404028352916020019161146e565b820191906000526020600020905b81548152906001019060200180831161145157829003601f168201915b5050505050815260200160018201548152602001600282018054600181600116156101000203166002900480601f01602080910402602001604051908101604052809291908181526020018280546001816001161561010002031660029004801561151a5780601f106114ef5761010080835404028352916020019161151a565b820191906000526020600020905b8154815290600101906020018083116114fd57829003601f168201915b505050505081526020016003820160009054906101000a900473ffffffffffffffffffffffffffffffffffffffff1673ffffffffffffffffffffffffffffffffffffffff1673ffffffffffffffffffffffffffffffffffffffff16815260200160048201548152602001600582015481526020016006820160009054906101000a900473ffffffffffffffffffffffffffffffffffffffff1673ffffffffffffffffffffffffffffffffffffffff1673ffffffffffffffffffffffffffffffffffffffff1681526020016006820160149054906101000a900460ff1615151515815250509150600073ffffffffffffffffffffffffffffffffffffffff168260c0015173ffffffffffffffffffffffffffffffffffffffff1614156116b9578160200151341415156116b4576040517f08c379a000000000000000000000000000000000000000000000000000000000815260040180806020018281038252601d8152602001807f4d757374206d656574207468652062657420726571756972656d656e7400000081525060200191505060405180910390fd5b6119f7565b81602001518260c0015173ffffffffffffffffffffffffffffffffffffffff1663dd62ed3e33306040518363ffffffff167c0100000000000000000000000000000000000000000000000000000000028152600401808373ffffffffffffffffffffffffffffffffffffffff1673ffffffffffffffffffffffffffffffffffffffff1681526020018273ffffffffffffffffffffffffffffffffffffffff1673ffffffffffffffffffffffffffffffffffffffff16815260200192505050602060405180830381600087803b15801561179157600080fd5b505af11580156117a5573d6000803e3d6000fd5b505050506040513d60208110156117bb57600080fd5b810190808051906020019092919050505010151515611868576040517f08c379a000000000000000000000000000000000000000000000000000000000815260040180806020018281038252602b8152602001807f596f75206d75737420616c6c6f772074686520636f6e747261637420746f206d81526020017f6f7665207468652062657400000000000000000000000000000000000000000081525060400191505060405180910390fd5b8160c0015173ffffffffffffffffffffffffffffffffffffffff166323b872dd333085602001516040518463ffffffff167c0100000000000000000000000000000000000000000000000000000000028152600401808473ffffffffffffffffffffffffffffffffffffffff1673ffffffffffffffffffffffffffffffffffffffff1681526020018373ffffffffffffffffffffffffffffffffffffffff1673ffffffffffffffffffffffffffffffffffffffff1681526020018281526020019350505050602060405180830381600087803b15801561194757600080fd5b505af115801561195b573d6000803e3d6000fd5b505050506040513d602081101561197157600080fd5b810190808051906020019092919050505015156119f6576040517f08c379a000000000000000000000000000000000000000000000000000000000815260040180806020018281038252601b8152602001807f5472616e7366657220776173206e6f74207375636365737366756c000000000081525060200191505060405180910390fd5b5b600083111515611a95576040517f08c379a00000000000000000000000000000000000000000000000000000000081526004018080602001828103825260338152602001807f596f75206d75737420757365203120626173656420696e646578657320666f7281526020017f2063686f6f73696e6720616e206f7074696f6e0000000000000000000000000081525060400191505060405180910390fd5b826001600086815260200190815260200160002060003373ffffffffffffffffffffffffffffffffffffffff1673ffffffffffffffffffffffffffffffffffffffff16815260200190815260200160002081905550600080858152602001908152602001600020600084815260200190815260200160002060008154809291906001019190505550600360008581526020019081526020016000203390806001815401808255809150509060018203906000526020600020016000909192909190916101000a81548173ffffffffffffffffffffffffffffffffffffffff021916908373ffffffffffffffffffffffffffffffffffffffff160217905550508160200151600485815481101515611ba857fe5b90600052602060002090600702016005016000828254019250508190555050505050565b813373ffffffffffffffffffffffffffffffffffffffff16600482815481101515611bf357fe5b906000526020600020906007020160030160009054906101000a900473ffffffffffffffffffffffffffffffffffffffff1673ffffffffffffffffffffffffffffffffffffffff16141515611cd6576040517f08c379a00000000000000000000000000000000000000000000000000000000081526004018080602001828103825260238152602001807f596f75206d75737420626520746865206f7261636c6520666f7220746869732081526020017f626574000000000000000000000000000000000000000000000000000000000081525060400191505060405180910390fd5b826000600482815481101515611ce857fe5b906000526020600020906007020160040154141515611d6f576040517f08c379a00000000000000000000000000000000000000000000000000000000081526004018080602001828103825260178152602001807f42657420697320616c7265616479207265736f6c76656400000000000000000081525060200191505060405180910390fd5b60001515600482815481101515611d8257fe5b906000526020600020906007020160060160149054906101000a900460ff161515141515611e18576040517f08c379a000000000000000000000000000000000000000000000000000000000815260040180806020018281038252600f8152602001807f426574206973207363726170706564000000000000000000000000000000000081525060200191505060405180910390fd5b600083111515611e90576040517f08c379a000000000000000000000000000000000000000000000000000000000815260040180806020018281038252601f8152602001807f557365203120626173656420696e646578657320666f72206f7574636f6d650081525060200191505060405180910390fd5b82600485815481101515611ea057fe5b90600052602060002090600702016004018190555050505050565b6001602052816000526040600020602052806000526040600020600091509150505481565b60065481565b600560009054906101000a900473ffffffffffffffffffffffffffffffffffffffff1681565b6000602052816000526040600020602052806000526040600020600091509150505481565b600560009054906101000a900473ffffffffffffffffffffffffffffffffffffffff1673ffffffffffffffffffffffffffffffffffffffff163373ffffffffffffffffffffffffffffffffffffffff16141515611ff6576040517f08c379a000000000000000000000000000000000000000000000000000000000815260040180806020018281038252601e8152602001807f596f75206d7573742062652074686520636f6e7472616374206f776e6572000081525060200191505060405180910390fd5b60006006819055503373ffffffffffffffffffffffffffffffffffffffff166108fc6006549081150290604051600060405180830381858888f19350505050158015612046573d6000803e3d6000fd5b50565b6004610100604051908101604052808681526020018581526020018481526020013373ffffffffffffffffffffffffffffffffffffffff16815260200160008152602001600081526020018373ffffffffffffffffffffffffffffffffffffffff168152602001600015158152509080600181540180825580915050906001820390600052602060002090600702016000909192909190915060008201518160000190805190602001906120fe929190612265565b50602082015181600101556040820151816002019080519060200190612125929190612265565b5060608201518160030160006101000a81548173ffffffffffffffffffffffffffffffffffffffff021916908373ffffffffffffffffffffffffffffffffffffffff1602179055506080820151816004015560a0820151816005015560c08201518160060160006101000a81548173ffffffffffffffffffffffffffffffffffffffff021916908373ffffffffffffffffffffffffffffffffffffffff16021790555060e08201518160060160146101000a81548160ff02191690831515021790555050505050505050565b61010060405190810160405280606081526020016000815260200160608152602001600073ffffffffffffffffffffffffffffffffffffffff1681526020016000815260200160008152602001600073ffffffffffffffffffffffffffffffffffffffff1681526020016000151581525090565b828054600181600116156101000203166002900490600052602060002090601f016020900481019282601f106122a657805160ff19168380011785556122d4565b828001600101855582156122d4579182015b828111156122d35782518255916020019190600101906122b8565b5b5090506122e191906122e5565b5090565b61230791905b808211156123035760008160009055506001016122eb565b5090565b905600a165627a7a723058204ca47ca41ce6c251adcff420a0ca253f965b1a781baaa8ef75a35dc8272679b00029",
  "source": "pragma solidity ^0.4.24;\nimport \"./IERC20.sol\";\n\ncontract BitBets {\n  mapping(uint => mapping(uint => uint)) public choiceBets;\n  mapping(uint => mapping(address => uint)) public userBets;\n  mapping(uint => mapping(address => bool)) public userWithdrawn;\n  mapping(uint => address[]) takers;\n  struct Bet {\n    string terms;\n    uint amount;\n    string options;\n    address oracle;\n    uint outcome;\n    uint totalPool;\n    address paymentToken;\n    bool scrapped;\n  }\n\n\n  Bet[] public bets;\n  address public owner;\n  uint public scrappedBalance;\n\n\n  constructor() public {\n    owner = msg.sender;\n  }\n\n  function createBet(string memory terms, uint amount, string memory options, address paymentToken) public {\n    bets.push(Bet({\n      terms: terms,\n      amount: amount,\n      options: options,\n      oracle: msg.sender,\n      outcome: 0,\n      totalPool: 0,\n      paymentToken: paymentToken,\n      scrapped: false\n    }));\n  }\n\n  function placeBet(uint betIndex, uint option) isUnresolved(betIndex) public payable {\n    Bet memory currentBet = bets[betIndex];\n    if(currentBet.paymentToken == address(0)) {\n      require(msg.value == currentBet.amount, \"Must meet the bet requirement\");\n    } else {\n      require(IERC20(currentBet.paymentToken).allowance(msg.sender, address(this)) >= currentBet.amount, \"You must allow the contract to move the bet\");\n      require(IERC20(currentBet.paymentToken).transferFrom(msg.sender, address(this), currentBet.amount), \"Transfer was not successful\");\n    }\n    require(option > 0, \"You must use 1 based indexes for choosing an option\");\n    userBets[betIndex][msg.sender] = option;\n    choiceBets[betIndex][option]++;\n    takers[betIndex].push(msg.sender);\n    bets[betIndex].totalPool += currentBet.amount;\n  }\n\n  modifier isOracle(uint betIndex) {\n    require(bets[betIndex].oracle == msg.sender, \"You must be the oracle for this bet\");\n    _;\n  }\n\n  modifier isAdmin() {\n    require(msg.sender == owner, \"You must be the contract owner\");\n    _;\n  }\n\n  modifier isUnresolved(uint betIndex) {\n    require(bets[betIndex].outcome == 0, \"Bet is already resolved\");\n    require(bets[betIndex].scrapped == false, \"Bet is scrapped\");\n    _;\n  }\n\n  modifier isResolved(uint betIndex) {\n    require(bets[betIndex].scrapped || bets[betIndex].outcome != 0, \"Bet is not resolved yet\");\n    _;\n  }\n\n  modifier didBet(uint betIndex) {\n    require(userBets[betIndex][msg.sender] > 0, \"You must have placed a bet\");\n    _;\n  }\n\n  modifier canWithdraw(uint betIndex) {\n    require(userWithdrawn[betIndex][msg.sender] == false, \"You've already withdrawn\");\n    _;\n  }\n\n  function resolveBet(uint betIndex, uint outcome) public isOracle(betIndex) isUnresolved(betIndex) {\n    require(outcome > 0, \"Use 1 based indexes for outcome\");\n    bets[betIndex].outcome = outcome;\n  }\n\n  function scrapBet(uint betIndex) public isOracle(betIndex) isUnresolved(betIndex) {\n    bets[betIndex].scrapped = true;\n    scrappedBalance += bets[betIndex].totalPool / 2;\n  }\n\n  function sweepScraps() public isAdmin {\n    scrappedBalance = 0;\n    msg.sender.transfer(scrappedBalance);\n  }\n\n  function withdraw(uint betIndex) public isResolved(betIndex) canWithdraw(betIndex) didBet(betIndex) {\n    Bet memory currentBet = bets[betIndex];\n    uint reward = 0;\n    if(currentBet.scrapped == false) {\n      require(userBets[betIndex][msg.sender] == currentBet.outcome, \"You didn't select the correct answer\");\n      reward = currentBet.totalPool / choiceBets[betIndex][currentBet.outcome];\n    } else {\n      // You get half of a canceled bet\n      reward = currentBet.amount / 2;\n    }\n    userWithdrawn[betIndex][msg.sender] = true;\n    if(currentBet.paymentToken == address(0x0)) {\n      address(msg.sender).transfer(reward);\n    } else {\n      IERC20(currentBet.paymentToken).transfer(msg.sender, reward);\n    }\n  }\n}\n",
  "sourcePath": "/Users/micah/dev/bitbets/src/web3/contracts/BitBets.sol",
  "compiler": {
    "name": "solc",
    "version": "0.4.25+commit.59dbf8f1.Emscripten.clang"
  },
  "schemaVersion": "3.0.12",
  "updatedAt": "2019-08-18T15:47:05.978Z",
  "devdoc": {
    "methods": {}
  },
  "userdoc": {
    "methods": {}
  }
}